{
  "contractName": "ERC20",
  "abi": [
    {
      "inputs": [
        {
          "internalType": "string",
          "name": "_name",
          "type": "string"
        },
        {
          "internalType": "string",
          "name": "_symbol",
          "type": "string"
        },
        {
          "internalType": "uint8",
          "name": "_decimals",
          "type": "uint8"
        }
      ],
      "stateMutability": "nonpayable",
      "type": "constructor"
    },
    {
      "anonymous": false,
      "inputs": [
        {
          "indexed": true,
          "internalType": "address",
          "name": "owner",
          "type": "address"
        },
        {
          "indexed": true,
          "internalType": "address",
          "name": "spender",
          "type": "address"
        },
        {
          "indexed": false,
          "internalType": "uint256",
          "name": "value",
          "type": "uint256"
        }
      ],
      "name": "Approval",
      "type": "event"
    },
    {
      "anonymous": false,
      "inputs": [
        {
          "indexed": true,
          "internalType": "address",
          "name": "from",
          "type": "address"
        },
        {
          "indexed": true,
          "internalType": "address",
          "name": "to",
          "type": "address"
        },
        {
          "indexed": false,
          "internalType": "uint256",
          "name": "value",
          "type": "uint256"
        }
      ],
      "name": "Transfer",
      "type": "event"
    },
    {
      "inputs": [
        {
          "internalType": "address",
          "name": "",
          "type": "address"
        },
        {
          "internalType": "address",
          "name": "",
          "type": "address"
        }
      ],
      "name": "allowance",
      "outputs": [
        {
          "internalType": "uint256",
          "name": "",
          "type": "uint256"
        }
      ],
      "stateMutability": "view",
      "type": "function"
    },
    {
      "inputs": [
        {
          "internalType": "address",
          "name": "",
          "type": "address"
        }
      ],
      "name": "balanceOf",
      "outputs": [
        {
          "internalType": "uint256",
          "name": "",
          "type": "uint256"
        }
      ],
      "stateMutability": "view",
      "type": "function"
    },
    {
      "inputs": [],
      "name": "decimals",
      "outputs": [
        {
          "internalType": "uint8",
          "name": "",
          "type": "uint8"
        }
      ],
      "stateMutability": "view",
      "type": "function"
    },
    {
      "inputs": [],
      "name": "name",
      "outputs": [
        {
          "internalType": "string",
          "name": "",
          "type": "string"
        }
      ],
      "stateMutability": "view",
      "type": "function"
    },
    {
      "inputs": [],
      "name": "symbol",
      "outputs": [
        {
          "internalType": "string",
          "name": "",
          "type": "string"
        }
      ],
      "stateMutability": "view",
      "type": "function"
    },
    {
      "inputs": [],
      "name": "totalSupply",
      "outputs": [
        {
          "internalType": "uint256",
          "name": "",
          "type": "uint256"
        }
      ],
      "stateMutability": "view",
      "type": "function"
    },
    {
      "inputs": [
        {
          "internalType": "address",
          "name": "recipient",
          "type": "address"
        },
        {
          "internalType": "uint256",
          "name": "amount",
          "type": "uint256"
        }
      ],
      "name": "transfer",
      "outputs": [
        {
          "internalType": "bool",
          "name": "",
          "type": "bool"
        }
      ],
      "stateMutability": "nonpayable",
      "type": "function"
    },
    {
      "inputs": [
        {
          "internalType": "address",
          "name": "spender",
          "type": "address"
        },
        {
          "internalType": "uint256",
          "name": "amount",
          "type": "uint256"
        }
      ],
      "name": "approve",
      "outputs": [
        {
          "internalType": "bool",
          "name": "",
          "type": "bool"
        }
      ],
      "stateMutability": "nonpayable",
      "type": "function"
    },
    {
      "inputs": [
        {
          "internalType": "address",
          "name": "sender",
          "type": "address"
        },
        {
          "internalType": "address",
          "name": "recipient",
          "type": "address"
        },
        {
          "internalType": "uint256",
          "name": "amount",
          "type": "uint256"
        }
      ],
      "name": "transferFrom",
      "outputs": [
        {
          "internalType": "bool",
          "name": "",
          "type": "bool"
        }
      ],
      "stateMutability": "nonpayable",
      "type": "function"
    },
    {
      "inputs": [
        {
          "internalType": "address",
          "name": "to",
          "type": "address"
        },
        {
          "internalType": "uint256",
          "name": "amount",
          "type": "uint256"
        }
      ],
      "name": "mint",
      "outputs": [],
      "stateMutability": "nonpayable",
      "type": "function"
    },
    {
      "inputs": [
        {
          "internalType": "address",
          "name": "from",
          "type": "address"
        },
        {
          "internalType": "uint256",
          "name": "amount",
          "type": "uint256"
        }
      ],
      "name": "burn",
      "outputs": [],
      "stateMutability": "nonpayable",
      "type": "function"
    }
  ],
  "bytecode": "0x60806040523480156200001157600080fd5b50604051620011ac380380620011ac833981810160405281019062000037919062000318565b82600390805190602001906200004f9291906200008d565b508160049080519060200190620000689291906200008d565b5080600560006101000a81548160ff021916908360ff16021790555050505062000416565b8280546200009b90620003e1565b90600052602060002090601f016020900481019282620000bf57600085556200010b565b82601f10620000da57805160ff19168380011785556200010b565b828001600101855582156200010b579182015b828111156200010a578251825591602001919060010190620000ed565b5b5090506200011a91906200011e565b5090565b5b80821115620001395760008160009055506001016200011f565b5090565b6000604051905090565b600080fd5b600080fd5b600080fd5b600080fd5b6000601f19601f8301169050919050565b7f4e487b7100000000000000000000000000000000000000000000000000000000600052604160045260246000fd5b620001a6826200015b565b810181811067ffffffffffffffff82111715620001c857620001c76200016c565b5b80604052505050565b6000620001dd6200013d565b9050620001eb82826200019b565b919050565b600067ffffffffffffffff8211156200020e576200020d6200016c565b5b62000219826200015b565b9050602081019050919050565b60005b838110156200024657808201518184015260208101905062000229565b8381111562000256576000848401525b50505050565b6000620002736200026d84620001f0565b620001d1565b90508281526020810184848401111562000292576200029162000156565b5b6200029f84828562000226565b509392505050565b600082601f830112620002bf57620002be62000151565b5b8151620002d18482602086016200025c565b91505092915050565b600060ff82169050919050565b620002f281620002da565b8114620002fe57600080fd5b50565b6000815190506200031281620002e7565b92915050565b60008060006060848603121562000334576200033362000147565b5b600084015167ffffffffffffffff8111156200035557620003546200014c565b5b6200036386828701620002a7565b935050602084015167ffffffffffffffff8111156200038757620003866200014c565b5b6200039586828701620002a7565b9250506040620003a88682870162000301565b9150509250925092565b7f4e487b7100000000000000000000000000000000000000000000000000000000600052602260045260246000fd5b60006002820490506001821680620003fa57607f821691505b60208210810362000410576200040f620003b2565b5b50919050565b610d8680620004266000396000f3fe608060405234801561001057600080fd5b50600436106100a95760003560e01c806340c10f191161007157806340c10f191461016857806370a082311461018457806395d89b41146101b45780639dc29fac146101d2578063a9059cbb146101ee578063dd62ed3e1461021e576100a9565b806306fdde03146100ae578063095ea7b3146100cc57806318160ddd146100fc57806323b872dd1461011a578063313ce5671461014a575b600080fd5b6100b661024e565b6040516100c391906109e5565b60405180910390f35b6100e660048036038101906100e19190610aa0565b6102dc565b6040516100f39190610afb565b60405180910390f35b6101046103ce565b6040516101119190610b25565b60405180910390f35b610134600480360381019061012f9190610b40565b6103d4565b6040516101419190610afb565b60405180910390f35b610152610585565b60405161015f9190610baf565b60405180910390f35b610182600480360381019061017d9190610aa0565b610598565b005b61019e60048036038101906101999190610bca565b6105a6565b6040516101ab9190610b25565b60405180910390f35b6101bc6105be565b6040516101c991906109e5565b60405180910390f35b6101ec60048036038101906101e79190610aa0565b61064c565b005b61020860048036038101906102039190610aa0565b61065a565b6040516102159190610afb565b60405180910390f35b61023860048036038101906102339190610bf7565b610777565b6040516102459190610b25565b60405180910390f35b6003805461025b90610c66565b80601f016020809104026020016040519081016040528092919081815260200182805461028790610c66565b80156102d45780601f106102a9576101008083540402835291602001916102d4565b820191906000526020600020905b8154815290600101906020018083116102b757829003601f168201915b505050505081565b600081600260003373ffffffffffffffffffffffffffffffffffffffff1673ffffffffffffffffffffffffffffffffffffffff16815260200190815260200160002060008573ffffffffffffffffffffffffffffffffffffffff1673ffffffffffffffffffffffffffffffffffffffff168152602001908152602001600020819055508273ffffffffffffffffffffffffffffffffffffffff163373ffffffffffffffffffffffffffffffffffffffff167f8c5be1e5ebec7d5bd14f71427d1e84f3dd0314c0f7b2291e5b200ac8c7c3b925846040516103bc9190610b25565b60405180910390a36001905092915050565b60005481565b600081600260008673ffffffffffffffffffffffffffffffffffffffff1673ffffffffffffffffffffffffffffffffffffffff16815260200190815260200160002060003373ffffffffffffffffffffffffffffffffffffffff1673ffffffffffffffffffffffffffffffffffffffff16815260200190815260200160002060008282546104629190610cc6565b9250508190555081600160008673ffffffffffffffffffffffffffffffffffffffff1673ffffffffffffffffffffffffffffffffffffffff16815260200190815260200160002060008282546104b89190610cc6565b9250508190555081600160008573ffffffffffffffffffffffffffffffffffffffff1673ffffffffffffffffffffffffffffffffffffffff168152602001908152602001600020600082825461050e9190610cfa565b925050819055508273ffffffffffffffffffffffffffffffffffffffff168473ffffffffffffffffffffffffffffffffffffffff167fddf252ad1be2c89b69c2b068fc378daa952ba7f163c4a11628f55a4df523b3ef846040516105729190610b25565b60405180910390a3600190509392505050565b600560009054906101000a900460ff1681565b6105a2828261079c565b5050565b60016020528060005260406000206000915090505481565b600480546105cb90610c66565b80601f01602080910402602001604051908101604052809291908181526020018280546105f790610c66565b80156106445780601f1061061957610100808354040283529160200191610644565b820191906000526020600020905b81548152906001019060200180831161062757829003601f168201915b505050505081565b6106568282610874565b5050565b600081600160003373ffffffffffffffffffffffffffffffffffffffff1673ffffffffffffffffffffffffffffffffffffffff16815260200190815260200160002060008282546106ab9190610cc6565b9250508190555081600160008573ffffffffffffffffffffffffffffffffffffffff1673ffffffffffffffffffffffffffffffffffffffff16815260200190815260200160002060008282546107019190610cfa565b925050819055508273ffffffffffffffffffffffffffffffffffffffff163373ffffffffffffffffffffffffffffffffffffffff167fddf252ad1be2c89b69c2b068fc378daa952ba7f163c4a11628f55a4df523b3ef846040516107659190610b25565b60405180910390a36001905092915050565b6002602052816000526040600020602052806000526040600020600091509150505481565b80600160008473ffffffffffffffffffffffffffffffffffffffff1673ffffffffffffffffffffffffffffffffffffffff16815260200190815260200160002060008282546107eb9190610cfa565b92505081905550806000808282546108039190610cfa565b925050819055508173ffffffffffffffffffffffffffffffffffffffff16600073ffffffffffffffffffffffffffffffffffffffff167fddf252ad1be2c89b69c2b068fc378daa952ba7f163c4a11628f55a4df523b3ef836040516108689190610b25565b60405180910390a35050565b80600160008473ffffffffffffffffffffffffffffffffffffffff1673ffffffffffffffffffffffffffffffffffffffff16815260200190815260200160002060008282546108c39190610cc6565b92505081905550806000808282546108db9190610cc6565b92505081905550600073ffffffffffffffffffffffffffffffffffffffff168273ffffffffffffffffffffffffffffffffffffffff167fddf252ad1be2c89b69c2b068fc378daa952ba7f163c4a11628f55a4df523b3ef836040516109409190610b25565b60405180910390a35050565b600081519050919050565b600082825260208201905092915050565b60005b8381101561098657808201518184015260208101905061096b565b83811115610995576000848401525b50505050565b6000601f19601f8301169050919050565b60006109b78261094c565b6109c18185610957565b93506109d1818560208601610968565b6109da8161099b565b840191505092915050565b600060208201905081810360008301526109ff81846109ac565b905092915050565b600080fd5b600073ffffffffffffffffffffffffffffffffffffffff82169050919050565b6000610a3782610a0c565b9050919050565b610a4781610a2c565b8114610a5257600080fd5b50565b600081359050610a6481610a3e565b92915050565b6000819050919050565b610a7d81610a6a565b8114610a8857600080fd5b50565b600081359050610a9a81610a74565b92915050565b60008060408385031215610ab757610ab6610a07565b5b6000610ac585828601610a55565b9250506020610ad685828601610a8b565b9150509250929050565b60008115159050919050565b610af581610ae0565b82525050565b6000602082019050610b106000830184610aec565b92915050565b610b1f81610a6a565b82525050565b6000602082019050610b3a6000830184610b16565b92915050565b600080600060608486031215610b5957610b58610a07565b5b6000610b6786828701610a55565b9350506020610b7886828701610a55565b9250506040610b8986828701610a8b565b9150509250925092565b600060ff82169050919050565b610ba981610b93565b82525050565b6000602082019050610bc46000830184610ba0565b92915050565b600060208284031215610be057610bdf610a07565b5b6000610bee84828501610a55565b91505092915050565b60008060408385031215610c0e57610c0d610a07565b5b6000610c1c85828601610a55565b9250506020610c2d85828601610a55565b9150509250929050565b7f4e487b7100000000000000000000000000000000000000000000000000000000600052602260045260246000fd5b60006002820490506001821680610c7e57607f821691505b602082108103610c9157610c90610c37565b5b50919050565b7f4e487b7100000000000000000000000000000000000000000000000000000000600052601160045260246000fd5b6000610cd182610a6a565b9150610cdc83610a6a565b925082821015610cef57610cee610c97565b5b828203905092915050565b6000610d0582610a6a565b9150610d1083610a6a565b9250827fffffffffffffffffffffffffffffffffffffffffffffffffffffffffffffffff03821115610d4557610d44610c97565b5b82820190509291505056fea2646970667358221220f7e3cca876f5bc06e91e195c3b5db83a8c7203266a6e3ecca7639aa34598d00364736f6c634300080d0033",
  "immutableReferences": {},
  "source": "// SPDX-License-Identifier: MIT\npragma solidity ^0.8.13;\n\ncontract ERC20 {\n    event Transfer(address indexed from, address indexed to, uint256 value);\n    event Approval(\n        address indexed owner, address indexed spender, uint256 value\n    );\n\n    uint256 public totalSupply;\n    mapping(address => uint256) public balanceOf;\n    mapping(address => mapping(address => uint256)) public allowance;\n    string public name;\n    string public symbol;\n    uint8 public decimals;\n\n    constructor(string memory _name, string memory _symbol, uint8 _decimals) {\n        name = _name;\n        symbol = _symbol;\n        decimals = _decimals;\n    }\n\n    function transfer(address recipient, uint256 amount)\n        external\n        returns (bool)\n    {\n        balanceOf[msg.sender] -= amount;\n        balanceOf[recipient] += amount;\n        emit Transfer(msg.sender, recipient, amount);\n        return true;\n    }\n\n    function approve(address spender, uint256 amount) external returns (bool) {\n        allowance[msg.sender][spender] = amount;\n        emit Approval(msg.sender, spender, amount);\n        return true;\n    }\n\n    function transferFrom(address sender, address recipient, uint256 amount)\n        external\n        returns (bool)\n    {\n        allowance[sender][msg.sender] -= amount;\n        balanceOf[sender] -= amount;\n        balanceOf[recipient] += amount;\n        emit Transfer(sender, recipient, amount);\n        return true;\n    }\n\n    function _mint(address to, uint256 amount) internal {\n        balanceOf[to] += amount;\n        totalSupply += amount;\n        emit Transfer(address(0), to, amount);\n    }\n\n    function _burn(address from, uint256 amount) internal {\n        balanceOf[from] -= amount;\n        totalSupply -= amount;\n        emit Transfer(from, address(0), amount);\n    }\n\n    function mint(address to, uint256 amount) external {\n        _mint(to, amount);\n    }\n\n    function burn(address from, uint256 amount) external {\n        _burn(from, amount);\n    }\n}\n",
  "sourcePath": "/Users/samhakimane/Projects/ds1/contracts/TuneToken.sol",
  "compiler": {
    "name": "solc",
    "version": "0.8.13+commit.abaa5c0e.Emscripten.clang"
  },
  "schemaVersion": "3.4.16",
  "updatedAt": "2024-05-11T13:35:14.468Z",
  "devdoc": {
    "kind": "dev",
    "methods": {},
    "version": 1
  },
  "userdoc": {
    "kind": "user",
    "methods": {},
    "version": 1
  }
}