{
  "contractName": "TuneToken",
  "abi": [
    {
      "inputs": [
        {
          "internalType": "string",
          "name": "_name",
          "type": "string"
        },
        {
          "internalType": "string",
          "name": "_symbol",
          "type": "string"
        }
      ],
      "stateMutability": "nonpayable",
      "type": "constructor"
    },
    {
      "anonymous": false,
      "inputs": [
        {
          "indexed": true,
          "internalType": "address",
          "name": "owner",
          "type": "address"
        },
        {
          "indexed": true,
          "internalType": "address",
          "name": "spender",
          "type": "address"
        },
        {
          "indexed": false,
          "internalType": "uint256",
          "name": "value",
          "type": "uint256"
        }
      ],
      "name": "Approval",
      "type": "event"
    },
    {
      "anonymous": false,
      "inputs": [
        {
          "indexed": true,
          "internalType": "address",
          "name": "artist",
          "type": "address"
        },
        {
          "indexed": false,
          "internalType": "string",
          "name": "songName",
          "type": "string"
        }
      ],
      "name": "SongAdded",
      "type": "event"
    },
    {
      "anonymous": false,
      "inputs": [
        {
          "indexed": true,
          "internalType": "address",
          "name": "from",
          "type": "address"
        },
        {
          "indexed": true,
          "internalType": "address",
          "name": "to",
          "type": "address"
        },
        {
          "indexed": false,
          "internalType": "uint256",
          "name": "value",
          "type": "uint256"
        }
      ],
      "name": "Transfer",
      "type": "event"
    },
    {
      "inputs": [
        {
          "internalType": "address",
          "name": "",
          "type": "address"
        }
      ],
      "name": "balanceOf",
      "outputs": [
        {
          "internalType": "uint256",
          "name": "",
          "type": "uint256"
        }
      ],
      "stateMutability": "view",
      "type": "function",
      "constant": true
    },
    {
      "inputs": [],
      "name": "name",
      "outputs": [
        {
          "internalType": "string",
          "name": "",
          "type": "string"
        }
      ],
      "stateMutability": "view",
      "type": "function",
      "constant": true
    },
    {
      "inputs": [],
      "name": "songAdditionCost",
      "outputs": [
        {
          "internalType": "uint256",
          "name": "",
          "type": "uint256"
        }
      ],
      "stateMutability": "view",
      "type": "function",
      "constant": true
    },
    {
      "inputs": [],
      "name": "songListenCost",
      "outputs": [
        {
          "internalType": "uint256",
          "name": "",
          "type": "uint256"
        }
      ],
      "stateMutability": "view",
      "type": "function",
      "constant": true
    },
    {
      "inputs": [],
      "name": "symbol",
      "outputs": [
        {
          "internalType": "string",
          "name": "",
          "type": "string"
        }
      ],
      "stateMutability": "view",
      "type": "function",
      "constant": true
    },
    {
      "inputs": [],
      "name": "totalSupply",
      "outputs": [
        {
          "internalType": "uint256",
          "name": "",
          "type": "uint256"
        }
      ],
      "stateMutability": "view",
      "type": "function",
      "constant": true
    },
    {
      "inputs": [
        {
          "internalType": "address",
          "name": "recipient",
          "type": "address"
        },
        {
          "internalType": "uint256",
          "name": "amount",
          "type": "uint256"
        }
      ],
      "name": "transfer",
      "outputs": [
        {
          "internalType": "bool",
          "name": "",
          "type": "bool"
        }
      ],
      "stateMutability": "nonpayable",
      "type": "function"
    },
    {
      "inputs": [
        {
          "internalType": "string",
          "name": "songName",
          "type": "string"
        },
        {
          "internalType": "string",
          "name": "ipfs",
          "type": "string"
        }
      ],
      "name": "addSong",
      "outputs": [],
      "stateMutability": "nonpayable",
      "type": "function"
    },
    {
      "inputs": [
        {
          "internalType": "address",
          "name": "artist",
          "type": "address"
        },
        {
          "internalType": "string",
          "name": "songName",
          "type": "string"
        }
      ],
      "name": "getSong",
      "outputs": [
        {
          "internalType": "string",
          "name": "",
          "type": "string"
        }
      ],
      "stateMutability": "nonpayable",
      "type": "function"
    },
    {
      "inputs": [
        {
          "internalType": "address",
          "name": "artist",
          "type": "address"
        }
      ],
      "name": "getSongsByArtist",
      "outputs": [
        {
          "internalType": "string[]",
          "name": "",
          "type": "string[]"
        }
      ],
      "stateMutability": "view",
      "type": "function",
      "constant": true
    },
    {
      "inputs": [],
      "name": "getMySongs",
      "outputs": [
        {
          "internalType": "string[]",
          "name": "",
          "type": "string[]"
        }
      ],
      "stateMutability": "view",
      "type": "function",
      "constant": true
    },
    {
      "inputs": [
        {
          "internalType": "address",
          "name": "to",
          "type": "address"
        },
        {
          "internalType": "uint256",
          "name": "amount",
          "type": "uint256"
        }
      ],
      "name": "mint",
      "outputs": [],
      "stateMutability": "nonpayable",
      "type": "function"
    },
    {
      "inputs": [
        {
          "internalType": "address",
          "name": "from",
          "type": "address"
        },
        {
          "internalType": "uint256",
          "name": "amount",
          "type": "uint256"
        }
      ],
      "name": "burn",
      "outputs": [],
      "stateMutability": "nonpayable",
      "type": "function"
    }
  ],
  "bytecode": "0x6080604052606460065560016007553480156200001b57600080fd5b50604051620018d9380380620018d98339818101604052810190620000419190620002c8565b8160049080519060200190620000599291906200007b565b508060059080519060200190620000729291906200007b565b505050620003b1565b82805462000089906200037c565b90600052602060002090601f016020900481019282620000ad5760008555620000f9565b82601f10620000c857805160ff1916838001178555620000f9565b82800160010185558215620000f9579182015b82811115620000f8578251825591602001919060010190620000db565b5b5090506200010891906200010c565b5090565b5b80821115620001275760008160009055506001016200010d565b5090565b6000604051905090565b600080fd5b600080fd5b600080fd5b600080fd5b6000601f19601f8301169050919050565b7f4e487b7100000000000000000000000000000000000000000000000000000000600052604160045260246000fd5b620001948262000149565b810181811067ffffffffffffffff82111715620001b657620001b56200015a565b5b80604052505050565b6000620001cb6200012b565b9050620001d9828262000189565b919050565b600067ffffffffffffffff821115620001fc57620001fb6200015a565b5b620002078262000149565b9050602081019050919050565b60005b838110156200023457808201518184015260208101905062000217565b8381111562000244576000848401525b50505050565b6000620002616200025b84620001de565b620001bf565b90508281526020810184848401111562000280576200027f62000144565b5b6200028d84828562000214565b509392505050565b600082601f830112620002ad57620002ac6200013f565b5b8151620002bf8482602086016200024a565b91505092915050565b60008060408385031215620002e257620002e162000135565b5b600083015167ffffffffffffffff8111156200030357620003026200013a565b5b620003118582860162000295565b925050602083015167ffffffffffffffff8111156200033557620003346200013a565b5b620003438582860162000295565b9150509250929050565b7f4e487b7100000000000000000000000000000000000000000000000000000000600052602260045260246000fd5b600060028204905060018216806200039557607f821691505b602082108103620003ab57620003aa6200034d565b5b50919050565b61151880620003c16000396000f3fe608060405234801561001057600080fd5b50600436106100cf5760003560e01c8063955de0fd1161008c5780639dc29fac116100665780639dc29fac14610202578063a9059cbb1461021e578063ec0f95d21461024e578063fb19e1ba1461027e576100cf565b8063955de0fd146101aa57806395d89b41146101c65780639a08afc4146101e4576100cf565b806306fdde03146100d457806318160ddd146100f257806340c10f19146101105780635cd07a3c1461012c57806370a082311461014a5780638b91124c1461017a575b600080fd5b6100dc61029c565b6040516100e99190610e16565b60405180910390f35b6100fa61032a565b6040516101079190610e51565b60405180910390f35b61012a60048036038101906101259190610f0a565b610330565b005b61013461033e565b6040516101419190610e51565b60405180910390f35b610164600480360381019061015f9190610f4a565b610344565b6040516101719190610e51565b60405180910390f35b610194600480360381019061018f9190610f4a565b61035c565b6040516101a19190611083565b60405180910390f35b6101c460048036038101906101bf91906111da565b610474565b005b6101ce61068b565b6040516101db9190610e16565b60405180910390f35b6101ec610719565b6040516101f99190611083565b60405180910390f35b61021c60048036038101906102179190610f0a565b61082f565b005b61023860048036038101906102339190610f0a565b61083d565b604051610245919061126d565b60405180910390f35b61026860048036038101906102639190611288565b61095a565b6040516102759190610e16565b60405180910390f35b610286610b24565b6040516102939190610e51565b60405180910390f35b600480546102a990611313565b80601f01602080910402602001604051908101604052809291908181526020018280546102d590611313565b80156103225780601f106102f757610100808354040283529160200191610322565b820191906000526020600020905b81548152906001019060200180831161030557829003601f168201915b505050505081565b60005481565b61033a8282610b2a565b5050565b60065481565b60016020528060005260406000206000915090505481565b6060600260008373ffffffffffffffffffffffffffffffffffffffff1673ffffffffffffffffffffffffffffffffffffffff168152602001908152602001600020805480602002602001604051908101604052809291908181526020016000905b828210156104695783829060005260206000200180546103dc90611313565b80601f016020809104026020016040519081016040528092919081815260200182805461040890611313565b80156104555780601f1061042a57610100808354040283529160200191610455565b820191906000526020600020905b81548152906001019060200180831161043857829003601f168201915b5050505050815260200190600101906103bd565b505050509050919050565b600754600160003373ffffffffffffffffffffffffffffffffffffffff1673ffffffffffffffffffffffffffffffffffffffff1681526020019081526020016000205410156104f8576040517f08c379a00000000000000000000000000000000000000000000000000000000081526004016104ef906113b6565b60405180910390fd5b600754600160003373ffffffffffffffffffffffffffffffffffffffff1673ffffffffffffffffffffffffffffffffffffffff16815260200190815260200160002060008282546105499190611405565b92505081905550600260003373ffffffffffffffffffffffffffffffffffffffff1673ffffffffffffffffffffffffffffffffffffffff168152602001908152602001600020829080600181540180825580915050600190039060005260206000200160009091909190915090805190602001906105c8929190610cda565b5080600360003373ffffffffffffffffffffffffffffffffffffffff1673ffffffffffffffffffffffffffffffffffffffff168152602001908152602001600020836040516106179190611475565b90815260200160405180910390209080519060200190610638929190610cda565b503373ffffffffffffffffffffffffffffffffffffffff167f0b4412a041a20731a63b727d5440bd9387b954ad09c43f09f5893172fbd9ba3e8360405161067f9190610e16565b60405180910390a25050565b6005805461069890611313565b80601f01602080910402602001604051908101604052809291908181526020018280546106c490611313565b80156107115780601f106106e657610100808354040283529160200191610711565b820191906000526020600020905b8154815290600101906020018083116106f457829003601f168201915b505050505081565b6060600260003373ffffffffffffffffffffffffffffffffffffffff1673ffffffffffffffffffffffffffffffffffffffff168152602001908152602001600020805480602002602001604051908101604052809291908181526020016000905b8282101561082657838290600052602060002001805461079990611313565b80601f01602080910402602001604051908101604052809291908181526020018280546107c590611313565b80156108125780601f106107e757610100808354040283529160200191610812565b820191906000526020600020905b8154815290600101906020018083116107f557829003601f168201915b50505050508152602001906001019061077a565b50505050905090565b6108398282610c02565b5050565b600081600160003373ffffffffffffffffffffffffffffffffffffffff1673ffffffffffffffffffffffffffffffffffffffff168152602001908152602001600020600082825461088e9190611405565b9250508190555081600160008573ffffffffffffffffffffffffffffffffffffffff1673ffffffffffffffffffffffffffffffffffffffff16815260200190815260200160002060008282546108e4919061148c565b925050819055508273ffffffffffffffffffffffffffffffffffffffff163373ffffffffffffffffffffffffffffffffffffffff167fddf252ad1be2c89b69c2b068fc378daa952ba7f163c4a11628f55a4df523b3ef846040516109489190610e51565b60405180910390a36001905092915050565b6060600654600160003373ffffffffffffffffffffffffffffffffffffffff1673ffffffffffffffffffffffffffffffffffffffff1681526020019081526020016000205410156109e0576040517f08c379a00000000000000000000000000000000000000000000000000000000081526004016109d7906113b6565b60405180910390fd5b600654600160003373ffffffffffffffffffffffffffffffffffffffff1673ffffffffffffffffffffffffffffffffffffffff1681526020019081526020016000206000828254610a319190611405565b92505081905550600360008473ffffffffffffffffffffffffffffffffffffffff1673ffffffffffffffffffffffffffffffffffffffff16815260200190815260200160002082604051610a859190611475565b90815260200160405180910390208054610a9e90611313565b80601f0160208091040260200160405190810160405280929190818152602001828054610aca90611313565b8015610b175780601f10610aec57610100808354040283529160200191610b17565b820191906000526020600020905b815481529060010190602001808311610afa57829003601f168201915b5050505050905092915050565b60075481565b80600160008473ffffffffffffffffffffffffffffffffffffffff1673ffffffffffffffffffffffffffffffffffffffff1681526020019081526020016000206000828254610b79919061148c565b9250508190555080600080828254610b91919061148c565b925050819055508173ffffffffffffffffffffffffffffffffffffffff16600073ffffffffffffffffffffffffffffffffffffffff167fddf252ad1be2c89b69c2b068fc378daa952ba7f163c4a11628f55a4df523b3ef83604051610bf69190610e51565b60405180910390a35050565b80600160008473ffffffffffffffffffffffffffffffffffffffff1673ffffffffffffffffffffffffffffffffffffffff1681526020019081526020016000206000828254610c519190611405565b9250508190555080600080828254610c699190611405565b92505081905550600073ffffffffffffffffffffffffffffffffffffffff168273ffffffffffffffffffffffffffffffffffffffff167fddf252ad1be2c89b69c2b068fc378daa952ba7f163c4a11628f55a4df523b3ef83604051610cce9190610e51565b60405180910390a35050565b828054610ce690611313565b90600052602060002090601f016020900481019282610d085760008555610d4f565b82601f10610d2157805160ff1916838001178555610d4f565b82800160010185558215610d4f579182015b82811115610d4e578251825591602001919060010190610d33565b5b509050610d5c9190610d60565b5090565b5b80821115610d79576000816000905550600101610d61565b5090565b600081519050919050565b600082825260208201905092915050565b60005b83811015610db7578082015181840152602081019050610d9c565b83811115610dc6576000848401525b50505050565b6000601f19601f8301169050919050565b6000610de882610d7d565b610df28185610d88565b9350610e02818560208601610d99565b610e0b81610dcc565b840191505092915050565b60006020820190508181036000830152610e308184610ddd565b905092915050565b6000819050919050565b610e4b81610e38565b82525050565b6000602082019050610e666000830184610e42565b92915050565b6000604051905090565b600080fd5b600080fd5b600073ffffffffffffffffffffffffffffffffffffffff82169050919050565b6000610eab82610e80565b9050919050565b610ebb81610ea0565b8114610ec657600080fd5b50565b600081359050610ed881610eb2565b92915050565b610ee781610e38565b8114610ef257600080fd5b50565b600081359050610f0481610ede565b92915050565b60008060408385031215610f2157610f20610e76565b5b6000610f2f85828601610ec9565b9250506020610f4085828601610ef5565b9150509250929050565b600060208284031215610f6057610f5f610e76565b5b6000610f6e84828501610ec9565b91505092915050565b600081519050919050565b600082825260208201905092915050565b6000819050602082019050919050565b600082825260208201905092915050565b6000610fbf82610d7d565b610fc98185610fa3565b9350610fd9818560208601610d99565b610fe281610dcc565b840191505092915050565b6000610ff98383610fb4565b905092915050565b6000602082019050919050565b600061101982610f77565b6110238185610f82565b93508360208202850161103585610f93565b8060005b8581101561107157848403895281516110528582610fed565b945061105d83611001565b925060208a01995050600181019050611039565b50829750879550505050505092915050565b6000602082019050818103600083015261109d818461100e565b905092915050565b600080fd5b600080fd5b7f4e487b7100000000000000000000000000000000000000000000000000000000600052604160045260246000fd5b6110e782610dcc565b810181811067ffffffffffffffff82111715611106576111056110af565b5b80604052505050565b6000611119610e6c565b905061112582826110de565b919050565b600067ffffffffffffffff821115611145576111446110af565b5b61114e82610dcc565b9050602081019050919050565b82818337600083830152505050565b600061117d6111788461112a565b61110f565b905082815260208101848484011115611199576111986110aa565b5b6111a484828561115b565b509392505050565b600082601f8301126111c1576111c06110a5565b5b81356111d184826020860161116a565b91505092915050565b600080604083850312156111f1576111f0610e76565b5b600083013567ffffffffffffffff81111561120f5761120e610e7b565b5b61121b858286016111ac565b925050602083013567ffffffffffffffff81111561123c5761123b610e7b565b5b611248858286016111ac565b9150509250929050565b60008115159050919050565b61126781611252565b82525050565b6000602082019050611282600083018461125e565b92915050565b6000806040838503121561129f5761129e610e76565b5b60006112ad85828601610ec9565b925050602083013567ffffffffffffffff8111156112ce576112cd610e7b565b5b6112da858286016111ac565b9150509250929050565b7f4e487b7100000000000000000000000000000000000000000000000000000000600052602260045260246000fd5b6000600282049050600182168061132b57607f821691505b60208210810361133e5761133d6112e4565b5b50919050565b7f4e6f7420656e6f75676820746f6b656e7320666f72207468652073656375726960008201527f7479206465706f73697400000000000000000000000000000000000000000000602082015250565b60006113a0602a83610d88565b91506113ab82611344565b604082019050919050565b600060208201905081810360008301526113cf81611393565b9050919050565b7f4e487b7100000000000000000000000000000000000000000000000000000000600052601160045260246000fd5b600061141082610e38565b915061141b83610e38565b92508282101561142e5761142d6113d6565b5b828203905092915050565b600081905092915050565b600061144f82610d7d565b6114598185611439565b9350611469818560208601610d99565b80840191505092915050565b60006114818284611444565b915081905092915050565b600061149782610e38565b91506114a283610e38565b9250827fffffffffffffffffffffffffffffffffffffffffffffffffffffffffffffffff038211156114d7576114d66113d6565b5b82820190509291505056fea26469706673582212207dcaa352c261b4d0d3b08b9d1bd100716133e5a7c9c849eef10daf13dbd34bf964736f6c634300080d0033",
  "immutableReferences": {},
  "source": "// SPDX-License-Identifier: MIT\npragma solidity ^0.8.13;\n\ncontract TuneToken {\n    event Transfer(address indexed from, address indexed to, uint256 value);\n    event Approval(\n        address indexed owner, address indexed spender, uint256 value\n    );\n    event SongAdded(address indexed artist, string songName);\n\n    uint256 public totalSupply;\n    mapping(address => uint256) public balanceOf;\n    mapping(address => string[]) private artistSongs;\n    mapping(address => mapping(string => string)) private songIPFS;\n    string public name;\n    string public symbol;\n\n    uint256 public songAdditionCost = 100;\n    uint256 public songListenCost = 1;\n\n    constructor(string memory _name, string memory _symbol) {\n        name = _name;\n        symbol = _symbol;\n    }\n\n    function transfer(address recipient, uint256 amount)\n        external\n        returns (bool)\n    {\n        balanceOf[msg.sender] -= amount;\n        balanceOf[recipient] += amount;\n        emit Transfer(msg.sender, recipient, amount);\n        return true;\n    }\n    \n    function addSong(string memory songName, string memory ipfs) external {\n        require(balanceOf[msg.sender] >= songListenCost, \"Not enough tokens for the security deposit\");\n\n        balanceOf[msg.sender] -= songListenCost;\n\n        artistSongs[msg.sender].push(songName);\n        songIPFS[msg.sender][songName] = ipfs;\n        emit SongAdded(msg.sender, songName);\n    }\n\n    function getSong(address artist, string memory songName) external returns (string memory) {\n        require(balanceOf[msg.sender] >= songAdditionCost, \"Not enough tokens for the security deposit\");\n\n        balanceOf[msg.sender] -= songAdditionCost;\n\n        return songIPFS[artist][songName];\n    }\n\n    function getSongsByArtist(address artist) external view returns (string[] memory) {\n        return artistSongs[artist];\n    }\n\n    function getMySongs() external view returns (string[] memory) {\n        return artistSongs[msg.sender];\n    }\n\n    function _mint(address to, uint256 amount) internal {\n        balanceOf[to] += amount;\n        totalSupply += amount;\n        emit Transfer(address(0), to, amount);\n    }\n\n    function _burn(address from, uint256 amount) internal {\n        balanceOf[from] -= amount;\n        totalSupply -= amount;\n        emit Transfer(from, address(0), amount);\n    }\n\n    function mint(address to, uint256 amount) external {\n        _mint(to, amount);\n    }\n\n    function burn(address from, uint256 amount) external {\n        _burn(from, amount);\n    }\n}\n",
  "sourcePath": "/Users/samhakimane/Projects/ds1/contracts/TuneToken.sol",
  "compiler": {
    "name": "solc",
    "version": "0.8.13+commit.abaa5c0e.Emscripten.clang"
  },
  "schemaVersion": "3.4.16",
  "updatedAt": "2024-05-11T14:29:20.799Z",
  "networkType": "ethereum",
  "devdoc": {
    "kind": "dev",
    "methods": {},
    "version": 1
  },
  "userdoc": {
    "kind": "user",
    "methods": {},
    "version": 1
  }
}