{
  "contractName": "TuneToken",
  "abi": [
    {
      "inputs": [
        {
          "internalType": "string",
          "name": "_name",
          "type": "string"
        },
        {
          "internalType": "string",
          "name": "_symbol",
          "type": "string"
        }
      ],
      "stateMutability": "nonpayable",
      "type": "constructor"
    },
    {
      "anonymous": false,
      "inputs": [
        {
          "indexed": true,
          "internalType": "address",
          "name": "owner",
          "type": "address"
        },
        {
          "indexed": true,
          "internalType": "address",
          "name": "spender",
          "type": "address"
        },
        {
          "indexed": false,
          "internalType": "uint256",
          "name": "value",
          "type": "uint256"
        }
      ],
      "name": "Approval",
      "type": "event"
    },
    {
      "anonymous": false,
      "inputs": [
        {
          "indexed": true,
          "internalType": "address",
          "name": "artist",
          "type": "address"
        },
        {
          "indexed": false,
          "internalType": "string",
          "name": "songName",
          "type": "string"
        }
      ],
      "name": "SongAdded",
      "type": "event"
    },
    {
      "anonymous": false,
      "inputs": [
        {
          "indexed": true,
          "internalType": "address",
          "name": "from",
          "type": "address"
        },
        {
          "indexed": true,
          "internalType": "address",
          "name": "to",
          "type": "address"
        },
        {
          "indexed": false,
          "internalType": "uint256",
          "name": "value",
          "type": "uint256"
        }
      ],
      "name": "Transfer",
      "type": "event"
    },
    {
      "inputs": [
        {
          "internalType": "address",
          "name": "",
          "type": "address"
        }
      ],
      "name": "balanceOf",
      "outputs": [
        {
          "internalType": "uint256",
          "name": "",
          "type": "uint256"
        }
      ],
      "stateMutability": "view",
      "type": "function",
      "constant": true
    },
    {
      "inputs": [],
      "name": "name",
      "outputs": [
        {
          "internalType": "string",
          "name": "",
          "type": "string"
        }
      ],
      "stateMutability": "view",
      "type": "function",
      "constant": true
    },
    {
      "inputs": [],
      "name": "songAdditionCost",
      "outputs": [
        {
          "internalType": "uint256",
          "name": "",
          "type": "uint256"
        }
      ],
      "stateMutability": "view",
      "type": "function",
      "constant": true
    },
    {
      "inputs": [],
      "name": "songListenCost",
      "outputs": [
        {
          "internalType": "uint256",
          "name": "",
          "type": "uint256"
        }
      ],
      "stateMutability": "view",
      "type": "function",
      "constant": true
    },
    {
      "inputs": [],
      "name": "symbol",
      "outputs": [
        {
          "internalType": "string",
          "name": "",
          "type": "string"
        }
      ],
      "stateMutability": "view",
      "type": "function",
      "constant": true
    },
    {
      "inputs": [],
      "name": "totalSupply",
      "outputs": [
        {
          "internalType": "uint256",
          "name": "",
          "type": "uint256"
        }
      ],
      "stateMutability": "view",
      "type": "function",
      "constant": true
    },
    {
      "inputs": [
        {
          "internalType": "address",
          "name": "recipient",
          "type": "address"
        },
        {
          "internalType": "uint256",
          "name": "amount",
          "type": "uint256"
        }
      ],
      "name": "transfer",
      "outputs": [
        {
          "internalType": "bool",
          "name": "",
          "type": "bool"
        }
      ],
      "stateMutability": "nonpayable",
      "type": "function"
    },
    {
      "inputs": [
        {
          "internalType": "address",
          "name": "artist",
          "type": "address"
        },
        {
          "internalType": "string",
          "name": "songName",
          "type": "string"
        }
      ],
      "name": "getIPFSValue",
      "outputs": [
        {
          "internalType": "string",
          "name": "",
          "type": "string"
        }
      ],
      "stateMutability": "view",
      "type": "function",
      "constant": true
    },
    {
      "inputs": [],
      "name": "getAllArtistAddresses",
      "outputs": [
        {
          "internalType": "address[]",
          "name": "",
          "type": "address[]"
        }
      ],
      "stateMutability": "view",
      "type": "function",
      "constant": true
    },
    {
      "inputs": [
        {
          "internalType": "address",
          "name": "user",
          "type": "address"
        }
      ],
      "name": "getBalanceOf",
      "outputs": [
        {
          "internalType": "uint256",
          "name": "",
          "type": "uint256"
        }
      ],
      "stateMutability": "view",
      "type": "function",
      "constant": true
    },
    {
      "inputs": [
        {
          "internalType": "string",
          "name": "songName",
          "type": "string"
        },
        {
          "internalType": "string",
          "name": "ipfs",
          "type": "string"
        }
      ],
      "name": "addSong",
      "outputs": [],
      "stateMutability": "nonpayable",
      "type": "function"
    },
    {
      "inputs": [
        {
          "internalType": "address",
          "name": "artist",
          "type": "address"
        },
        {
          "internalType": "string",
          "name": "songName",
          "type": "string"
        }
      ],
      "name": "buySong",
      "outputs": [],
      "stateMutability": "nonpayable",
      "type": "function"
    },
    {
      "inputs": [
        {
          "internalType": "address",
          "name": "artist",
          "type": "address"
        }
      ],
      "name": "getSongsByArtist",
      "outputs": [
        {
          "internalType": "string[]",
          "name": "",
          "type": "string[]"
        }
      ],
      "stateMutability": "view",
      "type": "function",
      "constant": true
    },
    {
      "inputs": [],
      "name": "getMySongs",
      "outputs": [
        {
          "internalType": "string[]",
          "name": "",
          "type": "string[]"
        }
      ],
      "stateMutability": "view",
      "type": "function",
      "constant": true
    },
    {
      "inputs": [
        {
          "internalType": "address",
          "name": "to",
          "type": "address"
        },
        {
          "internalType": "uint256",
          "name": "amount",
          "type": "uint256"
        }
      ],
      "name": "mint",
      "outputs": [],
      "stateMutability": "nonpayable",
      "type": "function"
    },
    {
      "inputs": [
        {
          "internalType": "address",
          "name": "from",
          "type": "address"
        },
        {
          "internalType": "uint256",
          "name": "amount",
          "type": "uint256"
        }
      ],
      "name": "burn",
      "outputs": [],
      "stateMutability": "nonpayable",
      "type": "function"
    }
  ],
  "bytecode": "0x6080604052606460085560016009553480156200001b57600080fd5b5060405162001fdb38038062001fdb8339818101604052810190620000419190620002c8565b8160069080519060200190620000599291906200007b565b508060079080519060200190620000729291906200007b565b505050620003b1565b82805462000089906200037c565b90600052602060002090601f016020900481019282620000ad5760008555620000f9565b82601f10620000c857805160ff1916838001178555620000f9565b82800160010185558215620000f9579182015b82811115620000f8578251825591602001919060010190620000db565b5b5090506200010891906200010c565b5090565b5b80821115620001275760008160009055506001016200010d565b5090565b6000604051905090565b600080fd5b600080fd5b600080fd5b600080fd5b6000601f19601f8301169050919050565b7f4e487b7100000000000000000000000000000000000000000000000000000000600052604160045260246000fd5b620001948262000149565b810181811067ffffffffffffffff82111715620001b657620001b56200015a565b5b80604052505050565b6000620001cb6200012b565b9050620001d9828262000189565b919050565b600067ffffffffffffffff821115620001fc57620001fb6200015a565b5b620002078262000149565b9050602081019050919050565b60005b838110156200023457808201518184015260208101905062000217565b8381111562000244576000848401525b50505050565b6000620002616200025b84620001de565b620001bf565b90508281526020810184848401111562000280576200027f62000144565b5b6200028d84828562000214565b509392505050565b600082601f830112620002ad57620002ac6200013f565b5b8151620002bf8482602086016200024a565b91505092915050565b60008060408385031215620002e257620002e162000135565b5b600083015167ffffffffffffffff8111156200030357620003026200013a565b5b620003118582860162000295565b925050602083015167ffffffffffffffff8111156200033557620003346200013a565b5b620003438582860162000295565b9150509250929050565b7f4e487b7100000000000000000000000000000000000000000000000000000000600052602260045260246000fd5b600060028204905060018216806200039557607f821691505b602082108103620003ab57620003aa6200034d565b5b50919050565b611c1a80620003c16000396000f3fe608060405234801561001057600080fd5b50600436106101005760003560e01c8063955de0fd116100975780639dc29fac116100665780639dc29fac146102b1578063a9059cbb146102cd578063eb0fd046146102fd578063fb19e1ba1461031957610100565b8063955de0fd1461022957806395d89b41146102455780639a08afc4146102635780639b96eece1461028157610100565b80635cd07a3c116100d35780635cd07a3c1461018d578063605f4f2a146101ab57806370a08231146101c95780638b91124c146101f957610100565b806306fdde031461010557806318160ddd146101235780632cf8ab8b1461014157806340c10f1914610171575b600080fd5b61010d610337565b60405161011a9190611355565b60405180910390f35b61012b6103c5565b6040516101389190611390565b60405180910390f35b61015b60048036038101906101569190611552565b6103cb565b6040516101689190611355565b60405180910390f35b61018b600480360381019061018691906115da565b61066d565b005b61019561067b565b6040516101a29190611390565b60405180910390f35b6101b3610681565b6040516101c091906116d8565b60405180910390f35b6101e360048036038101906101de91906116fa565b61070f565b6040516101f09190611390565b60405180910390f35b610213600480360381019061020e91906116fa565b610727565b6040516102209190611833565b60405180910390f35b610243600480360381019061023e9190611855565b61083f565b005b61024d610b04565b60405161025a9190611355565b60405180910390f35b61026b610b92565b6040516102789190611833565b60405180910390f35b61029b600480360381019061029691906116fa565b610ca8565b6040516102a89190611390565b60405180910390f35b6102cb60048036038101906102c691906115da565b610cf1565b005b6102e760048036038101906102e291906115da565b610cff565b6040516102f491906118e8565b60405180910390f35b61031760048036038101906103129190611552565b610e1c565b005b61032161100a565b60405161032e9190611390565b60405180910390f35b6006805461034490611932565b80601f016020809104026020016040519081016040528092919081815260200182805461037090611932565b80156103bd5780601f10610392576101008083540402835291602001916103bd565b820191906000526020600020905b8154815290600101906020018083116103a057829003601f168201915b505050505081565b60005481565b60606000600560003373ffffffffffffffffffffffffffffffffffffffff1673ffffffffffffffffffffffffffffffffffffffff16815260200190815260200160002060008573ffffffffffffffffffffffffffffffffffffffff1673ffffffffffffffffffffffffffffffffffffffff168152602001908152602001600020805480602002602001604051908101604052809291908181526020016000905b8282101561051757838290600052602060002001805461048a90611932565b80601f01602080910402602001604051908101604052809291908181526020018280546104b690611932565b80156105035780601f106104d857610100808354040283529160200191610503565b820191906000526020600020905b8154815290600101906020018083116104e657829003601f168201915b50505050508152602001906001019061046b565b50505050905060005b81518110156106525761054d82828151811061053f5761053e611963565b5b602002602001015185611010565b1561063f57600460008673ffffffffffffffffffffffffffffffffffffffff1673ffffffffffffffffffffffffffffffffffffffff1681526020019081526020016000208460405161059f91906119ce565b908152602001604051809103902080546105b890611932565b80601f01602080910402602001604051908101604052809291908181526020018280546105e490611932565b80156106315780601f1061060657610100808354040283529160200191610631565b820191906000526020600020905b81548152906001019060200180831161061457829003601f168201915b505050505092505050610667565b808061064a90611a14565b915050610520565b50604051806020016040528060008152509150505b92915050565b6106778282611069565b5050565b60085481565b6060600180548060200260200160405190810160405280929190818152602001828054801561070557602002820191906000526020600020905b8160009054906101000a900473ffffffffffffffffffffffffffffffffffffffff1673ffffffffffffffffffffffffffffffffffffffff16815260200190600101908083116106bb575b5050505050905090565b60026020528060005260406000206000915090505481565b6060600360008373ffffffffffffffffffffffffffffffffffffffff1673ffffffffffffffffffffffffffffffffffffffff168152602001908152602001600020805480602002602001604051908101604052809291908181526020016000905b828210156108345783829060005260206000200180546107a790611932565b80601f01602080910402602001604051908101604052809291908181526020018280546107d390611932565b80156108205780601f106107f557610100808354040283529160200191610820565b820191906000526020600020905b81548152906001019060200180831161080357829003601f168201915b505050505081526020019060010190610788565b505050509050919050565b600954600260003373ffffffffffffffffffffffffffffffffffffffff1673ffffffffffffffffffffffffffffffffffffffff1681526020019081526020016000205410156108c3576040517f08c379a00000000000000000000000000000000000000000000000000000000081526004016108ba90611ace565b60405180910390fd5b600854600260003373ffffffffffffffffffffffffffffffffffffffff1673ffffffffffffffffffffffffffffffffffffffff16815260200190815260200160002060008282546109149190611aee565b925050819055506000600360003373ffffffffffffffffffffffffffffffffffffffff1673ffffffffffffffffffffffffffffffffffffffff16815260200190815260200160002080549050036109c9576001339080600181540180825580915050600190039060005260206000200160009091909190916101000a81548173ffffffffffffffffffffffffffffffffffffffff021916908373ffffffffffffffffffffffffffffffffffffffff1602179055505b600360003373ffffffffffffffffffffffffffffffffffffffff1673ffffffffffffffffffffffffffffffffffffffff16815260200190815260200160002082908060018154018082558091505060019003906000526020600020016000909190919091509080519060200190610a41929190611219565b5080600460003373ffffffffffffffffffffffffffffffffffffffff1673ffffffffffffffffffffffffffffffffffffffff16815260200190815260200160002083604051610a9091906119ce565b90815260200160405180910390209080519060200190610ab1929190611219565b503373ffffffffffffffffffffffffffffffffffffffff167f0b4412a041a20731a63b727d5440bd9387b954ad09c43f09f5893172fbd9ba3e83604051610af89190611355565b60405180910390a25050565b60078054610b1190611932565b80601f0160208091040260200160405190810160405280929190818152602001828054610b3d90611932565b8015610b8a5780601f10610b5f57610100808354040283529160200191610b8a565b820191906000526020600020905b815481529060010190602001808311610b6d57829003601f168201915b505050505081565b6060600360003373ffffffffffffffffffffffffffffffffffffffff1673ffffffffffffffffffffffffffffffffffffffff168152602001908152602001600020805480602002602001604051908101604052809291908181526020016000905b82821015610c9f578382906000526020600020018054610c1290611932565b80601f0160208091040260200160405190810160405280929190818152602001828054610c3e90611932565b8015610c8b5780601f10610c6057610100808354040283529160200191610c8b565b820191906000526020600020905b815481529060010190602001808311610c6e57829003601f168201915b505050505081526020019060010190610bf3565b50505050905090565b6000600260008373ffffffffffffffffffffffffffffffffffffffff1673ffffffffffffffffffffffffffffffffffffffff168152602001908152602001600020549050919050565b610cfb8282611141565b5050565b600081600260003373ffffffffffffffffffffffffffffffffffffffff1673ffffffffffffffffffffffffffffffffffffffff1681526020019081526020016000206000828254610d509190611aee565b9250508190555081600260008573ffffffffffffffffffffffffffffffffffffffff1673ffffffffffffffffffffffffffffffffffffffff1681526020019081526020016000206000828254610da69190611b22565b925050819055508273ffffffffffffffffffffffffffffffffffffffff163373ffffffffffffffffffffffffffffffffffffffff167fddf252ad1be2c89b69c2b068fc378daa952ba7f163c4a11628f55a4df523b3ef84604051610e0a9190611390565b60405180910390a36001905092915050565b600954600260003373ffffffffffffffffffffffffffffffffffffffff1673ffffffffffffffffffffffffffffffffffffffff168152602001908152602001600020541015610ea0576040517f08c379a0000000000000000000000000000000000000000000000000000000008152600401610e9790611bc4565b60405180910390fd5b600954600260003373ffffffffffffffffffffffffffffffffffffffff1673ffffffffffffffffffffffffffffffffffffffff1681526020019081526020016000206000828254610ef19190611aee565b92505081905550600954600260008473ffffffffffffffffffffffffffffffffffffffff1673ffffffffffffffffffffffffffffffffffffffff1681526020019081526020016000206000828254610f499190611b22565b92505081905550600560003373ffffffffffffffffffffffffffffffffffffffff1673ffffffffffffffffffffffffffffffffffffffff16815260200190815260200160002060008373ffffffffffffffffffffffffffffffffffffffff1673ffffffffffffffffffffffffffffffffffffffff16815260200190815260200160002081908060018154018082558091505060019003906000526020600020016000909190919091509080519060200190611005929190611219565b505050565b60095481565b60008160405160200161102391906119ce565b604051602081830303815290604052805190602001208360405160200161104a91906119ce565b6040516020818303038152906040528051906020012014905092915050565b80600260008473ffffffffffffffffffffffffffffffffffffffff1673ffffffffffffffffffffffffffffffffffffffff16815260200190815260200160002060008282546110b89190611b22565b92505081905550806000808282546110d09190611b22565b925050819055508173ffffffffffffffffffffffffffffffffffffffff16600073ffffffffffffffffffffffffffffffffffffffff167fddf252ad1be2c89b69c2b068fc378daa952ba7f163c4a11628f55a4df523b3ef836040516111359190611390565b60405180910390a35050565b80600260008473ffffffffffffffffffffffffffffffffffffffff1673ffffffffffffffffffffffffffffffffffffffff16815260200190815260200160002060008282546111909190611aee565b92505081905550806000808282546111a89190611aee565b92505081905550600073ffffffffffffffffffffffffffffffffffffffff168273ffffffffffffffffffffffffffffffffffffffff167fddf252ad1be2c89b69c2b068fc378daa952ba7f163c4a11628f55a4df523b3ef8360405161120d9190611390565b60405180910390a35050565b82805461122590611932565b90600052602060002090601f016020900481019282611247576000855561128e565b82601f1061126057805160ff191683800117855561128e565b8280016001018555821561128e579182015b8281111561128d578251825591602001919060010190611272565b5b50905061129b919061129f565b5090565b5b808211156112b85760008160009055506001016112a0565b5090565b600081519050919050565b600082825260208201905092915050565b60005b838110156112f65780820151818401526020810190506112db565b83811115611305576000848401525b50505050565b6000601f19601f8301169050919050565b6000611327826112bc565b61133181856112c7565b93506113418185602086016112d8565b61134a8161130b565b840191505092915050565b6000602082019050818103600083015261136f818461131c565b905092915050565b6000819050919050565b61138a81611377565b82525050565b60006020820190506113a56000830184611381565b92915050565b6000604051905090565b600080fd5b600080fd5b600073ffffffffffffffffffffffffffffffffffffffff82169050919050565b60006113ea826113bf565b9050919050565b6113fa816113df565b811461140557600080fd5b50565b600081359050611417816113f1565b92915050565b600080fd5b600080fd5b7f4e487b7100000000000000000000000000000000000000000000000000000000600052604160045260246000fd5b61145f8261130b565b810181811067ffffffffffffffff8211171561147e5761147d611427565b5b80604052505050565b60006114916113ab565b905061149d8282611456565b919050565b600067ffffffffffffffff8211156114bd576114bc611427565b5b6114c68261130b565b9050602081019050919050565b82818337600083830152505050565b60006114f56114f0846114a2565b611487565b90508281526020810184848401111561151157611510611422565b5b61151c8482856114d3565b509392505050565b600082601f8301126115395761153861141d565b5b81356115498482602086016114e2565b91505092915050565b60008060408385031215611569576115686113b5565b5b600061157785828601611408565b925050602083013567ffffffffffffffff811115611598576115976113ba565b5b6115a485828601611524565b9150509250929050565b6115b781611377565b81146115c257600080fd5b50565b6000813590506115d4816115ae565b92915050565b600080604083850312156115f1576115f06113b5565b5b60006115ff85828601611408565b9250506020611610858286016115c5565b9150509250929050565b600081519050919050565b600082825260208201905092915050565b6000819050602082019050919050565b61164f816113df565b82525050565b60006116618383611646565b60208301905092915050565b6000602082019050919050565b60006116858261161a565b61168f8185611625565b935061169a83611636565b8060005b838110156116cb5781516116b28882611655565b97506116bd8361166d565b92505060018101905061169e565b5085935050505092915050565b600060208201905081810360008301526116f2818461167a565b905092915050565b6000602082840312156117105761170f6113b5565b5b600061171e84828501611408565b91505092915050565b600081519050919050565b600082825260208201905092915050565b6000819050602082019050919050565b600082825260208201905092915050565b600061176f826112bc565b6117798185611753565b93506117898185602086016112d8565b6117928161130b565b840191505092915050565b60006117a98383611764565b905092915050565b6000602082019050919050565b60006117c982611727565b6117d38185611732565b9350836020820285016117e585611743565b8060005b858110156118215784840389528151611802858261179d565b945061180d836117b1565b925060208a019950506001810190506117e9565b50829750879550505050505092915050565b6000602082019050818103600083015261184d81846117be565b905092915050565b6000806040838503121561186c5761186b6113b5565b5b600083013567ffffffffffffffff81111561188a576118896113ba565b5b61189685828601611524565b925050602083013567ffffffffffffffff8111156118b7576118b66113ba565b5b6118c385828601611524565b9150509250929050565b60008115159050919050565b6118e2816118cd565b82525050565b60006020820190506118fd60008301846118d9565b92915050565b7f4e487b7100000000000000000000000000000000000000000000000000000000600052602260045260246000fd5b6000600282049050600182168061194a57607f821691505b60208210810361195d5761195c611903565b5b50919050565b7f4e487b7100000000000000000000000000000000000000000000000000000000600052603260045260246000fd5b600081905092915050565b60006119a8826112bc565b6119b28185611992565b93506119c28185602086016112d8565b80840191505092915050565b60006119da828461199d565b915081905092915050565b7f4e487b7100000000000000000000000000000000000000000000000000000000600052601160045260246000fd5b6000611a1f82611377565b91507fffffffffffffffffffffffffffffffffffffffffffffffffffffffffffffffff8203611a5157611a506119e5565b5b600182019050919050565b7f4e6f7420656e6f75676820746f6b656e7320666f72207468652073656375726960008201527f7479206465706f73697400000000000000000000000000000000000000000000602082015250565b6000611ab8602a836112c7565b9150611ac382611a5c565b604082019050919050565b60006020820190508181036000830152611ae781611aab565b9050919050565b6000611af982611377565b9150611b0483611377565b925082821015611b1757611b166119e5565b5b828203905092915050565b6000611b2d82611377565b9150611b3883611377565b9250827fffffffffffffffffffffffffffffffffffffffffffffffffffffffffffffffff03821115611b6d57611b6c6119e5565b5b828201905092915050565b7f4e6f7420656e6f75676820746f6b656e7320746f206c697374656e0000000000600082015250565b6000611bae601b836112c7565b9150611bb982611b78565b602082019050919050565b60006020820190508181036000830152611bdd81611ba1565b905091905056fea264697066735822122045995c521ab1dab99e0a71b074c4af1413b58544e5bef006a4ce7d3f6a798ccb64736f6c634300080d0033",
  "immutableReferences": {},
  "source": "// SPDX-License-Identifier: MIT\npragma solidity ^0.8.13;\n\ncontract TuneToken {\n    event Transfer(address indexed from, address indexed to, uint256 value);\n    event Approval(\n        address indexed owner, address indexed spender, uint256 value\n    );\n    event SongAdded(address indexed artist, string songName);\n\n    uint256 public totalSupply;\n    address[] private artistAddresses;\n    mapping(address => uint256) public balanceOf;\n    mapping(address => string[]) private artistSongs;\n    mapping(address => mapping(string => string)) private songIPFS;\n    mapping(address => mapping(address => string[])) private boughtSongs;\n    string public name;\n    string public symbol;\n\n    uint256 public songAdditionCost = 100;\n    uint256 public songListenCost = 1;\n\n    constructor(string memory _name, string memory _symbol) {\n        name = _name;\n        symbol = _symbol;\n    }\n\n    function transfer(address recipient, uint256 amount)\n        external\n        returns (bool)\n    {\n        balanceOf[msg.sender] -= amount;\n        balanceOf[recipient] += amount;\n        emit Transfer(msg.sender, recipient, amount);\n        return true;\n    }\n\n    function compareStrings(string memory a, string memory b) internal pure returns (bool) {\n        return keccak256(abi.encodePacked(a)) == keccak256(abi.encodePacked(b));\n    }\n\n    function getIPFSValue(address artist, string memory songName) external view returns (string memory) {\n        string[] memory songs = boughtSongs[msg.sender][artist];\n\n        for (uint i = 0; i < songs.length; i++) {\n            if (compareStrings(songs[i], songName)) {\n                return songIPFS[artist][songName];\n            }\n        }\n\n        return \"\";\n    }\n\n    function getAllArtistAddresses() public view returns (address[] memory) {\n        return artistAddresses;\n    }\n\n    function getBalanceOf(address user) public view returns (uint256) {\n        return balanceOf[user];\n    }\n\n    function addSong(string memory songName, string memory ipfs) external {\n        require(balanceOf[msg.sender] >= songListenCost, \"Not enough tokens for the security deposit\");\n\n        balanceOf[msg.sender] -= songAdditionCost;\n\n        if (artistSongs[msg.sender].length == 0) {\n            artistAddresses.push(msg.sender);\n        }\n\n        artistSongs[msg.sender].push(songName);\n        songIPFS[msg.sender][songName] = ipfs;\n        emit SongAdded(msg.sender, songName);\n    }\n\n    function buySong(address artist, string memory songName) external {\n        require(balanceOf[msg.sender] >= songListenCost, \"Not enough tokens to listen\");\n\n        balanceOf[msg.sender] -= songListenCost;\n        balanceOf[artist] += songListenCost;\n        \n        boughtSongs[msg.sender][artist].push(songName);\n    }\n\n    function getSongsByArtist(address artist) external view returns (string[] memory) {\n        return artistSongs[artist];\n    }\n\n    function getMySongs() external view returns (string[] memory) {\n        return artistSongs[msg.sender];\n    }\n\n    function _mint(address to, uint256 amount) internal {\n        balanceOf[to] += amount;\n        totalSupply += amount;\n        emit Transfer(address(0), to, amount);\n    }\n\n    function _burn(address from, uint256 amount) internal {\n        balanceOf[from] -= amount;\n        totalSupply -= amount;\n        emit Transfer(from, address(0), amount);\n    }\n\n    function mint(address to, uint256 amount) external {\n        _mint(to, amount);\n    }\n\n    function burn(address from, uint256 amount) external {\n        _burn(from, amount);\n    }\n}\n",
  "sourcePath": "/Users/samhakimane/Projects/ds1/contracts/TuneToken.sol",
  "compiler": {
    "name": "solc",
    "version": "0.8.13+commit.abaa5c0e.Emscripten.clang"
  },
  "schemaVersion": "3.4.16",
  "updatedAt": "2024-05-18T14:32:19.785Z",
  "networkType": "ethereum",
  "devdoc": {
    "kind": "dev",
    "methods": {},
    "version": 1
  },
  "userdoc": {
    "kind": "user",
    "methods": {},
    "version": 1
  }
}